{
  "contractName": "AToken",
  "abi": [
    {
      "inputs": [
        {
          "internalType": "uint256",
          "name": "initialSupply",
          "type": "uint256"
        },
        {
          "internalType": "address[]",
          "name": "defaultOperators",
          "type": "address[]"
        }
      ],
      "payable": false,
      "stateMutability": "nonpayable",
      "type": "constructor"
    },
    {
      "anonymous": false,
      "inputs": [
        {
          "indexed": true,
          "internalType": "address",
          "name": "owner",
          "type": "address"
        },
        {
          "indexed": true,
          "internalType": "address",
          "name": "spender",
          "type": "address"
        },
        {
          "indexed": false,
          "internalType": "uint256",
          "name": "value",
          "type": "uint256"
        }
      ],
      "name": "Approval",
      "type": "event"
    },
    {
      "anonymous": false,
      "inputs": [
        {
          "indexed": true,
          "internalType": "address",
          "name": "operator",
          "type": "address"
        },
        {
          "indexed": true,
          "internalType": "address",
          "name": "tokenHolder",
          "type": "address"
        }
      ],
      "name": "AuthorizedOperator",
      "type": "event"
    },
    {
      "anonymous": false,
      "inputs": [
        {
          "indexed": true,
          "internalType": "address",
          "name": "operator",
          "type": "address"
        },
        {
          "indexed": true,
          "internalType": "address",
          "name": "from",
          "type": "address"
        },
        {
          "indexed": false,
          "internalType": "uint256",
          "name": "amount",
          "type": "uint256"
        },
        {
          "indexed": false,
          "internalType": "bytes",
          "name": "data",
          "type": "bytes"
        },
        {
          "indexed": false,
          "internalType": "bytes",
          "name": "operatorData",
          "type": "bytes"
        }
      ],
      "name": "Burned",
      "type": "event"
    },
    {
      "anonymous": false,
      "inputs": [
        {
          "indexed": true,
          "internalType": "address",
          "name": "operator",
          "type": "address"
        },
        {
          "indexed": true,
          "internalType": "address",
          "name": "to",
          "type": "address"
        },
        {
          "indexed": false,
          "internalType": "uint256",
          "name": "amount",
          "type": "uint256"
        },
        {
          "indexed": false,
          "internalType": "bytes",
          "name": "data",
          "type": "bytes"
        },
        {
          "indexed": false,
          "internalType": "bytes",
          "name": "operatorData",
          "type": "bytes"
        }
      ],
      "name": "Minted",
      "type": "event"
    },
    {
      "anonymous": false,
      "inputs": [
        {
          "indexed": true,
          "internalType": "address",
          "name": "operator",
          "type": "address"
        },
        {
          "indexed": true,
          "internalType": "address",
          "name": "tokenHolder",
          "type": "address"
        }
      ],
      "name": "RevokedOperator",
      "type": "event"
    },
    {
      "anonymous": false,
      "inputs": [
        {
          "indexed": true,
          "internalType": "address",
          "name": "operator",
          "type": "address"
        },
        {
          "indexed": true,
          "internalType": "address",
          "name": "from",
          "type": "address"
        },
        {
          "indexed": true,
          "internalType": "address",
          "name": "to",
          "type": "address"
        },
        {
          "indexed": false,
          "internalType": "uint256",
          "name": "amount",
          "type": "uint256"
        },
        {
          "indexed": false,
          "internalType": "bytes",
          "name": "data",
          "type": "bytes"
        },
        {
          "indexed": false,
          "internalType": "bytes",
          "name": "operatorData",
          "type": "bytes"
        }
      ],
      "name": "Sent",
      "type": "event"
    },
    {
      "anonymous": false,
      "inputs": [
        {
          "indexed": true,
          "internalType": "address",
          "name": "from",
          "type": "address"
        },
        {
          "indexed": true,
          "internalType": "address",
          "name": "to",
          "type": "address"
        },
        {
          "indexed": false,
          "internalType": "uint256",
          "name": "value",
          "type": "uint256"
        }
      ],
      "name": "Transfer",
      "type": "event"
    },
    {
      "constant": true,
      "inputs": [
        {
          "internalType": "address",
          "name": "holder",
          "type": "address"
        },
        {
          "internalType": "address",
          "name": "spender",
          "type": "address"
        }
      ],
      "name": "allowance",
      "outputs": [
        {
          "internalType": "uint256",
          "name": "",
          "type": "uint256"
        }
      ],
      "payable": false,
      "stateMutability": "view",
      "type": "function"
    },
    {
      "constant": false,
      "inputs": [
        {
          "internalType": "address",
          "name": "spender",
          "type": "address"
        },
        {
          "internalType": "uint256",
          "name": "value",
          "type": "uint256"
        }
      ],
      "name": "approve",
      "outputs": [
        {
          "internalType": "bool",
          "name": "",
          "type": "bool"
        }
      ],
      "payable": false,
      "stateMutability": "nonpayable",
      "type": "function"
    },
    {
      "constant": false,
      "inputs": [
        {
          "internalType": "address",
          "name": "operator",
          "type": "address"
        }
      ],
      "name": "authorizeOperator",
      "outputs": [],
      "payable": false,
      "stateMutability": "nonpayable",
      "type": "function"
    },
    {
      "constant": true,
      "inputs": [
        {
          "internalType": "address",
          "name": "tokenHolder",
          "type": "address"
        }
      ],
      "name": "balanceOf",
      "outputs": [
        {
          "internalType": "uint256",
          "name": "",
          "type": "uint256"
        }
      ],
      "payable": false,
      "stateMutability": "view",
      "type": "function"
    },
    {
      "constant": false,
      "inputs": [
        {
          "internalType": "uint256",
          "name": "amount",
          "type": "uint256"
        },
        {
          "internalType": "bytes",
          "name": "data",
          "type": "bytes"
        }
      ],
      "name": "burn",
      "outputs": [],
      "payable": false,
      "stateMutability": "nonpayable",
      "type": "function"
    },
    {
      "constant": true,
      "inputs": [],
      "name": "decimals",
      "outputs": [
        {
          "internalType": "uint8",
          "name": "",
          "type": "uint8"
        }
      ],
      "payable": false,
      "stateMutability": "pure",
      "type": "function"
    },
    {
      "constant": true,
      "inputs": [],
      "name": "defaultOperators",
      "outputs": [
        {
          "internalType": "address[]",
          "name": "",
          "type": "address[]"
        }
      ],
      "payable": false,
      "stateMutability": "view",
      "type": "function"
    },
    {
      "constant": true,
      "inputs": [],
      "name": "granularity",
      "outputs": [
        {
          "internalType": "uint256",
          "name": "",
          "type": "uint256"
        }
      ],
      "payable": false,
      "stateMutability": "view",
      "type": "function"
    },
    {
      "constant": true,
      "inputs": [
        {
          "internalType": "address",
          "name": "operator",
          "type": "address"
        },
        {
          "internalType": "address",
          "name": "tokenHolder",
          "type": "address"
        }
      ],
      "name": "isOperatorFor",
      "outputs": [
        {
          "internalType": "bool",
          "name": "",
          "type": "bool"
        }
      ],
      "payable": false,
      "stateMutability": "view",
      "type": "function"
    },
    {
      "constant": true,
      "inputs": [],
      "name": "name",
      "outputs": [
        {
          "internalType": "string",
          "name": "",
          "type": "string"
        }
      ],
      "payable": false,
      "stateMutability": "view",
      "type": "function"
    },
    {
      "constant": false,
      "inputs": [
        {
          "internalType": "address",
          "name": "account",
          "type": "address"
        },
        {
          "internalType": "uint256",
          "name": "amount",
          "type": "uint256"
        },
        {
          "internalType": "bytes",
          "name": "data",
          "type": "bytes"
        },
        {
          "internalType": "bytes",
          "name": "operatorData",
          "type": "bytes"
        }
      ],
      "name": "operatorBurn",
      "outputs": [],
      "payable": false,
      "stateMutability": "nonpayable",
      "type": "function"
    },
    {
      "constant": false,
      "inputs": [
        {
          "internalType": "address",
          "name": "sender",
          "type": "address"
        },
        {
          "internalType": "address",
          "name": "recipient",
          "type": "address"
        },
        {
          "internalType": "uint256",
          "name": "amount",
          "type": "uint256"
        },
        {
          "internalType": "bytes",
          "name": "data",
          "type": "bytes"
        },
        {
          "internalType": "bytes",
          "name": "operatorData",
          "type": "bytes"
        }
      ],
      "name": "operatorSend",
      "outputs": [],
      "payable": false,
      "stateMutability": "nonpayable",
      "type": "function"
    },
    {
      "constant": false,
      "inputs": [
        {
          "internalType": "address",
          "name": "operator",
          "type": "address"
        }
      ],
      "name": "revokeOperator",
      "outputs": [],
      "payable": false,
      "stateMutability": "nonpayable",
      "type": "function"
    },
    {
      "constant": false,
      "inputs": [
        {
          "internalType": "address",
          "name": "recipient",
          "type": "address"
        },
        {
          "internalType": "uint256",
          "name": "amount",
          "type": "uint256"
        },
        {
          "internalType": "bytes",
          "name": "data",
          "type": "bytes"
        }
      ],
      "name": "send",
      "outputs": [],
      "payable": false,
      "stateMutability": "nonpayable",
      "type": "function"
    },
    {
      "constant": true,
      "inputs": [],
      "name": "symbol",
      "outputs": [
        {
          "internalType": "string",
          "name": "",
          "type": "string"
        }
      ],
      "payable": false,
      "stateMutability": "view",
      "type": "function"
    },
    {
      "constant": true,
      "inputs": [],
      "name": "totalSupply",
      "outputs": [
        {
          "internalType": "uint256",
          "name": "",
          "type": "uint256"
        }
      ],
      "payable": false,
      "stateMutability": "view",
      "type": "function"
    },
    {
      "constant": false,
      "inputs": [
        {
          "internalType": "address",
          "name": "recipient",
          "type": "address"
        },
        {
          "internalType": "uint256",
          "name": "amount",
          "type": "uint256"
        }
      ],
      "name": "transfer",
      "outputs": [
        {
          "internalType": "bool",
          "name": "",
          "type": "bool"
        }
      ],
      "payable": false,
      "stateMutability": "nonpayable",
      "type": "function"
    },
    {
      "constant": false,
      "inputs": [
        {
          "internalType": "address",
          "name": "holder",
          "type": "address"
        },
        {
          "internalType": "address",
          "name": "recipient",
          "type": "address"
        },
        {
          "internalType": "uint256",
          "name": "amount",
          "type": "uint256"
        }
      ],
      "name": "transferFrom",
      "outputs": [
        {
          "internalType": "bool",
          "name": "",
          "type": "bool"
        }
      ],
      "payable": false,
      "stateMutability": "nonpayable",
      "type": "function"
    }
  ],
  "bytecode": "0x60806040523480156200001157600080fd5b506040516200289038038062002890833981810160405260408110156200003757600080fd5b8151602083018051604051929492938301929190846401000000008211156200005f57600080fd5b9083019060208201858111156200007557600080fd5b82518660208202830111640100000000821117156200009357600080fd5b82525081516020918201928201910280838360005b83811015620000c2578181015183820152602001620000a8565b5050505090910160408181018152600682526520aa37b5b2b760d11b60208084019182528251808401909352600383526220aa2760e91b908301528251929650909450869350620001179250600291620008b8565b5081516200012d906003906020850190620008b8565b508051620001439060049060208401906200093d565b5060005b600454811015620001a357600160056000600484815481106200016657fe5b6000918252602080832091909101546001600160a01b031683528201929092526040019020805460ff191691151591909117905560010162000147565b50604080516a22a9219b9b9baa37b5b2b760a91b8152815190819003600b0181206329965a1d60e01b82523060048301819052602483019190915260448201529051731820a4b7618bde71dce8cdc73aab6c95905fad24916329965a1d91606480830192600092919082900301818387803b1580156200022257600080fd5b505af115801562000237573d6000803e3d6000fd5b5050604080516922a92199182a37b5b2b760b11b8152815190819003600a0181206329965a1d60e01b82523060048301819052602483019190915260448201529051731820a4b7618bde71dce8cdc73aab6c95905fad2493506329965a1d9250606480830192600092919082900301818387803b158015620002b857600080fd5b505af1158015620002cd573d6000803e3d6000fd5b505050505050506200030733338460405180602001604052806000815250604051806020016040528060008152506200030f60201b60201c565b5050620009ea565b6001600160a01b0384166200036b576040805162461bcd60e51b815260206004820181905260248201527f4552433737373a206d696e7420746f20746865207a65726f2061646472657373604482015290519081900360640190fd5b62000387836001546200055c60201b62001b5a1790919060201c565b6001556001600160a01b03841660009081526020818152604090912054620003ba91859062001b5a6200055c821b17901c565b6001600160a01b038516600090815260208190526040812091909155620003f29086908686868660016001600160e01b03620005be16565b836001600160a01b0316856001600160a01b03167f2fe5be0146f74c5bce36c0b80911af6c7d86ff27e89d5cfa61fc681327954e5d858585604051808481526020018060200180602001838103835285818151815260200191508051906020019080838360005b838110156200047357818101518382015260200162000459565b50505050905090810190601f168015620004a15780820380516001836020036101000a031916815260200191505b50838103825284518152845160209182019186019080838360005b83811015620004d6578181015183820152602001620004bc565b50505050905090810190601f168015620005045780820380516001836020036101000a031916815260200191505b509550505050505060405180910390a36040805184815290516001600160a01b038616916000917fddf252ad1be2c89b69c2b068fc378daa952ba7f163c4a11628f55a4df523b3ef9181900360200190a35050505050565b600082820183811015620005b7576040805162461bcd60e51b815260206004820152601b60248201527f536166654d6174683a206164646974696f6e206f766572666c6f770000000000604482015290519081900360640190fd5b9392505050565b6040805163555ddc6560e11b81526001600160a01b03871660048201527fb281fc8c12954d22544db45de3159a39272895b169a852b314f9cc762e44c53b60248201529051600091731820a4b7618bde71dce8cdc73aab6c95905fad249163aabbb8ca91604480820192602092909190829003018186803b1580156200064357600080fd5b505afa15801562000658573d6000803e3d6000fd5b505050506040513d60208110156200066f57600080fd5b505190506001600160a01b038116156200080d57806001600160a01b03166223de298989898989896040518763ffffffff1660e01b815260040180876001600160a01b03166001600160a01b03168152602001866001600160a01b03166001600160a01b03168152602001856001600160a01b03166001600160a01b031681526020018481526020018060200180602001838103835285818151815260200191508051906020019080838360005b83811015620007375781810151838201526020016200071d565b50505050905090810190601f168015620007655780820380516001836020036101000a031916815260200191505b50838103825284518152845160209182019186019080838360005b838110156200079a57818101518382015260200162000780565b50505050905090810190601f168015620007c85780820380516001836020036101000a031916815260200191505b5098505050505050505050600060405180830381600087803b158015620007ee57600080fd5b505af115801562000803573d6000803e3d6000fd5b5050505062000871565b8115620008715762000833866001600160a01b03166200087b60201b62001bb41760201c565b15620008715760405162461bcd60e51b815260040180806020018281038252604d81526020018062002843604d913960600191505060405180910390fd5b5050505050505050565b6000813f7fc5d2460186f7233c927e7db2dcc703c0e500b653ca82273b7bfad8045d85a4708115801590620008b05750808214155b949350505050565b828054600181600116156101000203166002900490600052602060002090601f016020900481019282601f10620008fb57805160ff19168380011785556200092b565b828001600101855582156200092b579182015b828111156200092b5782518255916020019190600101906200090e565b5062000939929150620009a3565b5090565b82805482825590600052602060002090810192821562000995579160200282015b828111156200099557825182546001600160a01b0319166001600160a01b039091161782556020909201916001909101906200095e565b5062000939929150620009c3565b620009c091905b80821115620009395760008155600101620009aa565b90565b620009c091905b80821115620009395780546001600160a01b0319168155600101620009ca565b611e4980620009fa6000396000f3fe608060405234801561001057600080fd5b50600436106101165760003560e01c8063959b8c3f116100a2578063d95b637111610071578063d95b637114610489578063dd62ed3e146104b7578063fad8b32a146104e5578063fc673c4f1461050b578063fe9d9303146105de57610116565b8063959b8c3f146103ac57806395d89b41146103d25780639bd9bbc6146103da578063a9059cbb1461045d57610116565b806323b872dd116100e957806323b872dd1461024a578063313ce56714610280578063556f0dc71461029e57806362ad1b83146102a657806370a082311461038657610116565b806306e485381461011b57806306fdde0314610173578063095ea7b3146101f057806318160ddd14610230575b600080fd5b610123610653565b60408051602080825283518183015283519192839290830191858101910280838360005b8381101561015f578181015183820152602001610147565b505050509050019250505060405180910390f35b61017b6106b5565b6040805160208082528351818301528351919283929083019185019080838360005b838110156101b557818101518382015260200161019d565b50505050905090810190601f1680156101e25780820380516001836020036101000a031916815260200191505b509250505060405180910390f35b61021c6004803603604081101561020657600080fd5b506001600160a01b03813516906020013561073f565b604080519115158252519081900360200190f35b610238610761565b60408051918252519081900360200190f35b61021c6004803603606081101561026057600080fd5b506001600160a01b03813581169160208101359091169060400135610767565b6102886108ea565b6040805160ff9092168252519081900360200190f35b6102386108ef565b610384600480360360a08110156102bc57600080fd5b6001600160a01b03823581169260208101359091169160408201359190810190608081016060820135600160201b8111156102f657600080fd5b82018360208201111561030857600080fd5b803590602001918460018302840111600160201b8311171561032957600080fd5b919390929091602081019035600160201b81111561034657600080fd5b82018360208201111561035857600080fd5b803590602001918460018302840111600160201b8311171561037957600080fd5b5090925090506108f4565b005b6102386004803603602081101561039c57600080fd5b50356001600160a01b03166109ca565b610384600480360360208110156103c257600080fd5b50356001600160a01b03166109e5565b61017b610b31565b610384600480360360608110156103f057600080fd5b6001600160a01b0382351691602081013591810190606081016040820135600160201b81111561041f57600080fd5b82018360208201111561043157600080fd5b803590602001918460018302840111600160201b8311171561045257600080fd5b509092509050610b92565b61021c6004803603604081101561047357600080fd5b506001600160a01b038135169060200135610bfa565b61021c6004803603604081101561049f57600080fd5b506001600160a01b0381358116916020013516610cd3565b610238600480360360408110156104cd57600080fd5b506001600160a01b0381358116916020013516610d75565b610384600480360360208110156104fb57600080fd5b50356001600160a01b0316610da0565b6103846004803603608081101561052157600080fd5b6001600160a01b0382351691602081013591810190606081016040820135600160201b81111561055057600080fd5b82018360208201111561056257600080fd5b803590602001918460018302840111600160201b8311171561058357600080fd5b919390929091602081019035600160201b8111156105a057600080fd5b8201836020820111156105b257600080fd5b803590602001918460018302840111600160201b831117156105d357600080fd5b509092509050610eec565b610384600480360360408110156105f457600080fd5b81359190810190604081016020820135600160201b81111561061557600080fd5b82018360208201111561062757600080fd5b803590602001918460018302840111600160201b8311171561064857600080fd5b509092509050610fbd565b606060048054806020026020016040519081016040528092919081815260200182805480156106ab57602002820191906000526020600020905b81546001600160a01b0316815260019091019060200180831161068d575b5050505050905090565b60028054604080516020601f60001961010060018716150201909416859004938401819004810282018101909252828152606093909290918301828280156106ab5780601f10610713576101008083540402835291602001916106ab565b820191906000526020600020905b81548152906001019060200180831161072157509395945050505050565b60008061074a611020565b9050610757818585611024565b5060019392505050565b60015490565b60006001600160a01b0383166107ae5760405162461bcd60e51b8152600401808060200182810382526024815260200180611d306024913960400191505060405180910390fd5b6001600160a01b0384166107f35760405162461bcd60e51b8152600401808060200182810382526026815260200180611da96026913960400191505060405180910390fd5b60006107fd611020565b905061082b8186868660405180602001604052806000815250604051806020016040528060008152506110cb565b610857818686866040518060200160405280600081525060405180602001604052806000815250611312565b6108b185826108ac86604051806060016040528060298152602001611d80602991396001600160a01b03808c166000908152600860209081526040808320938b1683529290522054919063ffffffff61152b16565b611024565b6108df81868686604051806020016040528060008152506040518060200160405280600081525060006115c2565b506001949350505050565b601290565b600190565b6109056108ff611020565b88610cd3565b6109405760405162461bcd60e51b815260040180806020018281038252602c815260200180611d54602c913960400191505060405180910390fd5b6109c161094b611020565b88888888888080601f01602080910402602001604051908101604052809392919081815260200183838082843760009201919091525050604080516020601f8c018190048102820181019092528a815292508a915089908190840183828082843760009201919091525060019250611862915050565b50505050505050565b6001600160a01b031660009081526020819052604090205490565b806001600160a01b03166109f7611020565b6001600160a01b03161415610a3d5760405162461bcd60e51b8152600401808060200182810382526024815260200180611c9e6024913960400191505060405180910390fd5b6001600160a01b03811660009081526005602052604090205460ff1615610aa05760076000610a6a611020565b6001600160a01b03908116825260208083019390935260409182016000908120918516815292529020805460ff19169055610ae7565b600160066000610aae611020565b6001600160a01b03908116825260208083019390935260409182016000908120918616815292529020805460ff19169115159190911790555b610aef611020565b6001600160a01b0316816001600160a01b03167ff4caeb2d6ca8932a215a353d0703c326ec2d81fc68170f320eb2ab49e9df61f960405160405180910390a350565b60038054604080516020601f60026000196101006001881615020190951694909404938401819004810282018101909252828152606093909290918301828280156106ab5780601f10610713576101008083540402835291602001916106ab565b610bf4610b9d611020565b610ba5611020565b868686868080601f016020809104026020016040519081016040528093929190818152602001838380828437600092018290525060408051602081019091529081529250600191506118629050565b50505050565b60006001600160a01b038316610c415760405162461bcd60e51b8152600401808060200182810382526024815260200180611d306024913960400191505060405180910390fd5b6000610c4b611020565b9050610c798182868660405180602001604052806000815250604051806020016040528060008152506110cb565b610ca5818286866040518060200160405280600081525060405180602001604052806000815250611312565b61075781828686604051806020016040528060008152506040518060200160405280600081525060006115c2565b6000816001600160a01b0316836001600160a01b03161480610d3e57506001600160a01b03831660009081526005602052604090205460ff168015610d3e57506001600160a01b0380831660009081526007602090815260408083209387168352929052205460ff16155b80610d6e57506001600160a01b0380831660009081526006602090815260408083209387168352929052205460ff165b9392505050565b6001600160a01b03918216600090815260086020908152604080832093909416825291909152205490565b610da8611020565b6001600160a01b0316816001600160a01b03161415610df85760405162461bcd60e51b8152600401808060200182810382526021815260200180611cc26021913960400191505060405180910390fd5b6001600160a01b03811660009081526005602052604090205460ff1615610e6457600160076000610e27611020565b6001600160a01b03908116825260208083019390935260409182016000908120918616815292529020805460ff1916911515919091179055610ea2565b60066000610e70611020565b6001600160a01b03908116825260208083019390935260409182016000908120918516815292529020805460ff191690555b610eaa611020565b6001600160a01b0316816001600160a01b03167f50546e66e5f44d728365dc3908c63bc5cfeeab470722c1677e3073a6ac294aa160405160405180910390a350565b610efd610ef7611020565b87610cd3565b610f385760405162461bcd60e51b815260040180806020018281038252602c815260200180611d54602c913960400191505060405180910390fd5b610fb5610f43611020565b878787878080601f01602080910402602001604051908101604052809392919081815260200183838082843760009201919091525050604080516020601f8b01819004810282018101909252898152925089915088908190840183828082843760009201919091525061192d92505050565b505050505050565b61101b610fc8611020565b610fd0611020565b8585858080601f01602080910402602001604051908101604052809392919081815260200183838082843760009201829052506040805160208101909152908152925061192d915050565b505050565b3390565b6001600160a01b0382166110695760405162461bcd60e51b8152600401808060200182810382526023815260200180611df26023913960400191505060405180910390fd5b6001600160a01b03808416600081815260086020908152604080832094871680845294825291829020859055815185815291517f8c5be1e5ebec7d5bd14f71427d1e84f3dd0314c0f7b2291e5b200ac8c7c3b9259281900390910190a3505050565b6040805163555ddc6560e11b81526001600160a01b03871660048201527f29ddb589b1fb5fc7cf394961c1adf5f8c6454761adf795e67fe149f658abe89560248201529051600091731820a4b7618bde71dce8cdc73aab6c95905fad249163aabbb8ca91604480820192602092909190829003018186803b15801561114f57600080fd5b505afa158015611163573d6000803e3d6000fd5b505050506040513d602081101561117957600080fd5b505190506001600160a01b038116156109c157806001600160a01b03166375ab97828888888888886040518763ffffffff1660e01b815260040180876001600160a01b03166001600160a01b03168152602001866001600160a01b03166001600160a01b03168152602001856001600160a01b03166001600160a01b031681526020018481526020018060200180602001838103835285818151815260200191508051906020019080838360005b8381101561123f578181015183820152602001611227565b50505050905090810190601f16801561126c5780820380516001836020036101000a031916815260200191505b50838103825284518152845160209182019186019080838360005b8381101561129f578181015183820152602001611287565b50505050905090810190601f1680156112cc5780820380516001836020036101000a031916815260200191505b5098505050505050505050600060405180830381600087803b1580156112f157600080fd5b505af1158015611305573d6000803e3d6000fd5b5050505050505050505050565b61135583604051806060016040528060278152602001611c55602791396001600160a01b038816600090815260208190526040902054919063ffffffff61152b16565b6001600160a01b03808716600090815260208190526040808220939093559086168152205461138a908463ffffffff611b5a16565b600080866001600160a01b03166001600160a01b0316815260200190815260200160002081905550836001600160a01b0316856001600160a01b0316876001600160a01b03167f06b541ddaa720db2b10a4d0cdac39b8d360425fc073085fac19bc82614677987868686604051808481526020018060200180602001838103835285818151815260200191508051906020019080838360005b8381101561143b578181015183820152602001611423565b50505050905090810190601f1680156114685780820380516001836020036101000a031916815260200191505b50838103825284518152845160209182019186019080838360005b8381101561149b578181015183820152602001611483565b50505050905090810190601f1680156114c85780820380516001836020036101000a031916815260200191505b509550505050505060405180910390a4836001600160a01b0316856001600160a01b03167fddf252ad1be2c89b69c2b068fc378daa952ba7f163c4a11628f55a4df523b3ef856040518082815260200191505060405180910390a3505050505050565b600081848411156115ba5760405162461bcd60e51b81526004018080602001828103825283818151815260200191508051906020019080838360005b8381101561157f578181015183820152602001611567565b50505050905090810190601f1680156115ac5780820380516001836020036101000a031916815260200191505b509250505060405180910390fd5b505050900390565b6040805163555ddc6560e11b81526001600160a01b03871660048201527fb281fc8c12954d22544db45de3159a39272895b169a852b314f9cc762e44c53b60248201529051600091731820a4b7618bde71dce8cdc73aab6c95905fad249163aabbb8ca91604480820192602092909190829003018186803b15801561164657600080fd5b505afa15801561165a573d6000803e3d6000fd5b505050506040513d602081101561167057600080fd5b505190506001600160a01b0381161561180457806001600160a01b03166223de298989898989896040518763ffffffff1660e01b815260040180876001600160a01b03166001600160a01b03168152602001866001600160a01b03166001600160a01b03168152602001856001600160a01b03166001600160a01b031681526020018481526020018060200180602001838103835285818151815260200191508051906020019080838360005b8381101561173557818101518382015260200161171d565b50505050905090810190601f1680156117625780820380516001836020036101000a031916815260200191505b50838103825284518152845160209182019186019080838360005b8381101561179557818101518382015260200161177d565b50505050905090810190601f1680156117c25780820380516001836020036101000a031916815260200191505b5098505050505050505050600060405180830381600087803b1580156117e757600080fd5b505af11580156117fb573d6000803e3d6000fd5b50505050611858565b81156118585761181c866001600160a01b0316611bb4565b156118585760405162461bcd60e51b815260040180806020018281038252604d815260200180611ce3604d913960600191505060405180910390fd5b5050505050505050565b6001600160a01b0386166118a75760405162461bcd60e51b8152600401808060200182810382526022815260200180611c336022913960400191505060405180910390fd5b6001600160a01b038516611902576040805162461bcd60e51b815260206004820181905260248201527f4552433737373a2073656e6420746f20746865207a65726f2061646472657373604482015290519081900360640190fd5b6119108787878787876110cb565b61191e878787878787611312565b6109c1878787878787876115c2565b6001600160a01b0384166119725760405162461bcd60e51b8152600401808060200182810382526022815260200180611c7c6022913960400191505060405180910390fd5b611981858560008686866110cb565b6119c483604051806060016040528060238152602001611dcf602391396001600160a01b038716600090815260208190526040902054919063ffffffff61152b16565b6001600160a01b0385166000908152602081905260409020556001546119f0908463ffffffff611bf016565b600181905550836001600160a01b0316856001600160a01b03167fa78a9be3a7b862d26933ad85fb11d80ef66b8f972d7cbba06621d583943a4098858585604051808481526020018060200180602001838103835285818151815260200191508051906020019080838360005b83811015611a75578181015183820152602001611a5d565b50505050905090810190601f168015611aa25780820380516001836020036101000a031916815260200191505b50838103825284518152845160209182019186019080838360005b83811015611ad5578181015183820152602001611abd565b50505050905090810190601f168015611b025780820380516001836020036101000a031916815260200191505b509550505050505060405180910390a36040805184815290516000916001600160a01b038716917fddf252ad1be2c89b69c2b068fc378daa952ba7f163c4a11628f55a4df523b3ef9181900360200190a35050505050565b600082820183811015610d6e576040805162461bcd60e51b815260206004820152601b60248201527f536166654d6174683a206164646974696f6e206f766572666c6f770000000000604482015290519081900360640190fd5b6000813f7fc5d2460186f7233c927e7db2dcc703c0e500b653ca82273b7bfad8045d85a4708115801590611be85750808214155b949350505050565b6000610d6e83836040518060400160405280601e81526020017f536166654d6174683a207375627472616374696f6e206f766572666c6f77000081525061152b56fe4552433737373a2073656e642066726f6d20746865207a65726f20616464726573734552433737373a207472616e7366657220616d6f756e7420657863656564732062616c616e63654552433737373a206275726e2066726f6d20746865207a65726f20616464726573734552433737373a20617574686f72697a696e672073656c66206173206f70657261746f724552433737373a207265766f6b696e672073656c66206173206f70657261746f724552433737373a20746f6b656e20726563697069656e7420636f6e747261637420686173206e6f20696d706c656d656e74657220666f7220455243373737546f6b656e73526563697069656e744552433737373a207472616e7366657220746f20746865207a65726f20616464726573734552433737373a2063616c6c6572206973206e6f7420616e206f70657261746f7220666f7220686f6c6465724552433737373a207472616e7366657220616d6f756e74206578636565647320616c6c6f77616e63654552433737373a207472616e736665722066726f6d20746865207a65726f20616464726573734552433737373a206275726e20616d6f756e7420657863656564732062616c616e63654552433737373a20617070726f766520746f20746865207a65726f2061646472657373a265627a7a72315820e4d9fdf62b90254810aba0a37aa697f9bdd962e629af713c838e2a800bb7884b64736f6c634300051000324552433737373a20746f6b656e20726563697069656e7420636f6e747261637420686173206e6f20696d706c656d656e74657220666f7220455243373737546f6b656e73526563697069656e74",
  "source": "pragma solidity ^0.5.0;\r\n\r\nimport \"@openzeppelin/contracts/token/ERC777/ERC777.sol\";\r\n\r\ncontract AToken is ERC777 {\r\n    constructor(\r\n        uint256 initialSupply,\r\n        address[] memory defaultOperators\r\n    )\r\n    ERC777(\"AToken\", \"ATN\", defaultOperators)\r\n    public\r\n    {\r\n        _mint(msg.sender, msg.sender, initialSupply, \"\", \"\");\r\n    }\r\n}\r\n",
  "sourcePath": "C:/work/til/erc777/contracts/AToken.sol",
  "compiler": {
    "name": "solc",
    "version": "0.5.16+commit.9c3226ce.Emscripten.clang"
  },
  "schemaVersion": "3.0.21",
  "updatedAt": "2020-01-19T04:34:46.542Z",
  "networkType": "ethereum",
  "devdoc": {
    "methods": {
      "allowance(address,address)": {
        "details": "See {IERC20-allowance}.     * Note that operator and allowance concepts are orthogonal: operators may not have allowance, and accounts with allowance may not be operators themselves."
      },
      "approve(address,uint256)": {
        "details": "See {IERC20-approve}.     * Note that accounts cannot have allowance issued by their operators."
      },
      "authorizeOperator(address)": {
        "details": "See {IERC777-authorizeOperator}."
      },
      "balanceOf(address)": {
        "details": "Returns the amount of tokens owned by an account (`tokenHolder`)."
      },
      "burn(uint256,bytes)": {
        "details": "See {IERC777-burn}.     * Also emits a {Transfer} event for ERC20 compatibility."
      },
      "decimals()": {
        "details": "See {ERC20Detailed-decimals}.     * Always returns 18, as per the [ERC777 EIP](https://eips.ethereum.org/EIPS/eip-777#backward-compatibility)."
      },
      "defaultOperators()": {
        "details": "See {IERC777-defaultOperators}."
      },
      "granularity()": {
        "details": "See {IERC777-granularity}.     * This implementation always returns `1`."
      },
      "isOperatorFor(address,address)": {
        "details": "See {IERC777-isOperatorFor}."
      },
      "name()": {
        "details": "See {IERC777-name}."
      },
      "operatorBurn(address,uint256,bytes,bytes)": {
        "details": "See {IERC777-operatorBurn}.     * Emits {Burned} and {Transfer} events."
      },
      "operatorSend(address,address,uint256,bytes,bytes)": {
        "details": "See {IERC777-operatorSend}.     * Emits {Sent} and {Transfer} events."
      },
      "revokeOperator(address)": {
        "details": "See {IERC777-revokeOperator}."
      },
      "send(address,uint256,bytes)": {
        "details": "See {IERC777-send}.     * Also emits a {Transfer} event for ERC20 compatibility."
      },
      "symbol()": {
        "details": "See {IERC777-symbol}."
      },
      "totalSupply()": {
        "details": "See {IERC777-totalSupply}."
      },
      "transfer(address,uint256)": {
        "details": "See {IERC20-transfer}.     * Unlike `send`, `recipient` is _not_ required to implement the {IERC777Recipient} interface if it is a contract.     * Also emits a {Sent} event."
      },
      "transferFrom(address,address,uint256)": {
        "details": "See {IERC20-transferFrom}.    * Note that operator and allowance concepts are orthogonal: operators cannot call `transferFrom` (unless they have allowance), and accounts with allowance cannot call `operatorSend` (unless they are operators).    * Emits {Sent}, {Transfer} and {Approval} events."
      }
    }
  },
  "userdoc": {
    "methods": {}
  }
}