{
  "fileName": "Auth.sol",
  "contractName": "Auth",
  "source": "pragma solidity ^0.5.0;\r\n\r\ncontract Auth {\r\n    address private administrator;\r\n\r\n    constructor () public {\r\n        // Make the deployer of the contract the administrator\r\n        administrator = msg.sender;\r\n    }\r\n\r\n    function isAdministrator(address user) public view returns (bool) {\r\n        return user == administrator;\r\n    }\r\n}\r\n",
  "sourcePath": "contracts/access-control/Auth.sol",
  "abi": [
    {
      "inputs": [],
      "payable": false,
      "stateMutability": "nonpayable",
      "type": "constructor"
    },
    {
      "constant": true,
      "inputs": [
        {
          "internalType": "address",
          "name": "user",
          "type": "address"
        }
      ],
      "name": "isAdministrator",
      "outputs": [
        {
          "internalType": "bool",
          "name": "",
          "type": "bool"
        }
      ],
      "payable": false,
      "stateMutability": "view",
      "type": "function"
    }
  ],
  "bytecode": "0x6080604052348015600f57600080fd5b50600080546001600160a01b0319163317905560ad806100306000396000f3fe6080604052348015600f57600080fd5b506004361060285760003560e01c80630a2eb30114602d575b600080fd5b605060048036036020811015604157600080fd5b50356001600160a01b03166064565b604080519115158252519081900360200190f35b6000546001600160a01b039081169116149056fea265627a7a72315820cac2091d5b12f5e314f9ccfc668fcd70bd347a7eff615ab1736812f8c660434564736f6c63430005100032",
  "compiler": {
    "name": "solc",
    "version": "0.5.16+commit.9c3226ce.Emscripten.clang",
    "optimizer": {
      "enabled": true,
      "runs": 200
    },
    "evmVersion": "petersburg"
  }
}