{
  "fileName": "Box.sol",
  "contractName": "Box",
  "source": "// contracts/Box.sol\r\npragma solidity ^0.5.0;\r\n\r\n// Import Auth from the access-control subdirectory\r\nimport \"./access-control/Auth.sol\";\r\nimport \"@openzeppelin/upgrades/contracts/Initializable.sol\";\r\n\r\ncontract Box is Initializable {\r\n    uint256 private value;\r\n    Auth private auth;\r\n\r\n    event ValueChanged(uint256 newValue);\r\n\r\n    function initialize(Auth _auth) initializer public {\r\n        auth = _auth;\r\n    }\r\n\r\n    function store(uint256 newValue) public {\r\n        // Require that the caller is registered as an administrator in Auth\r\n        require(auth.isAdministrator(msg.sender), \"Unauthorized\");\r\n\r\n        value = newValue;\r\n        emit ValueChanged(newValue);\r\n    }\r\n\r\n    function retrieve() public view returns (uint256) {\r\n        return value;\r\n    }\r\n}\r\n",
  "sourcePath": "contracts/Box.sol",
  "abi": [
    {
      "anonymous": false,
      "inputs": [
        {
          "indexed": false,
          "internalType": "uint256",
          "name": "newValue",
          "type": "uint256"
        }
      ],
      "name": "ValueChanged",
      "type": "event"
    },
    {
      "constant": false,
      "inputs": [
        {
          "internalType": "contract Auth",
          "name": "_auth",
          "type": "address"
        }
      ],
      "name": "initialize",
      "outputs": [],
      "payable": false,
      "stateMutability": "nonpayable",
      "type": "function"
    },
    {
      "constant": true,
      "inputs": [],
      "name": "retrieve",
      "outputs": [
        {
          "internalType": "uint256",
          "name": "",
          "type": "uint256"
        }
      ],
      "payable": false,
      "stateMutability": "view",
      "type": "function"
    },
    {
      "constant": false,
      "inputs": [
        {
          "internalType": "uint256",
          "name": "newValue",
          "type": "uint256"
        }
      ],
      "name": "store",
      "outputs": [],
      "payable": false,
      "stateMutability": "nonpayable",
      "type": "function"
    }
  ],
  "bytecode": "0x608060405234801561001057600080fd5b506102c4806100206000396000f3fe608060405234801561001057600080fd5b50600436106100415760003560e01c80632e64cec1146100465780636057361d14610060578063c4d66de81461007f575b600080fd5b61004e6100a5565b60408051918252519081900360200190f35b61007d6004803603602081101561007657600080fd5b50356100ab565b005b61007d6004803603602081101561009557600080fd5b50356001600160a01b031661019d565b60335490565b60345460408051630a2eb30160e01b815233600482015290516001600160a01b0390921691630a2eb30191602480820192602092909190829003018186803b1580156100f657600080fd5b505afa15801561010a573d6000803e3d6000fd5b505050506040513d602081101561012057600080fd5b5051610162576040805162461bcd60e51b815260206004820152600c60248201526b155b985d5d1a1bdc9a5e995960a21b604482015290519081900360640190fd5b60338190556040805182815290517f93fe6d397c74fdf1402a8b72e47b68512f0510d7b98a4bc4cbdf6ac7108b3c599181900360200190a150565b600054610100900460ff16806101b657506101b661025b565b806101c4575060005460ff16155b6101ff5760405162461bcd60e51b815260040180806020018281038252602e815260200180610262602e913960400191505060405180910390fd5b600054610100900460ff1615801561022a576000805460ff1961ff0019909116610100171660011790555b603480546001600160a01b0319166001600160a01b0384161790558015610257576000805461ff00191690555b5050565b303b159056fe436f6e747261637420696e7374616e63652068617320616c7265616479206265656e20696e697469616c697a6564a265627a7a7231582074c9be0276316aceb208b1fdb10acec919f6eb79d33a9aa0983477ba57dc7d4164736f6c63430005100032",
  "compiler": {
    "name": "solc",
    "version": "0.5.16+commit.9c3226ce.Emscripten.clang",
    "optimizer": {
      "enabled": true,
      "runs": 200
    },
    "evmVersion": "petersburg"
  }
}